{
  "contractName": "MyToken",
  "abi": [
    {
      "inputs": [
        {
          "internalType": "string",
          "name": "_name",
          "type": "string"
        },
        {
          "internalType": "string",
          "name": "_symbol",
          "type": "string"
        },
        {
          "internalType": "string",
          "name": "_initBaseURI",
          "type": "string"
        },
        {
          "internalType": "string",
          "name": "_unrevealedURI",
          "type": "string"
        }
      ],
      "stateMutability": "nonpayable",
      "type": "constructor"
    },
    {
      "anonymous": false,
      "inputs": [
        {
          "indexed": true,
          "internalType": "address",
          "name": "owner",
          "type": "address"
        },
        {
          "indexed": true,
          "internalType": "address",
          "name": "approved",
          "type": "address"
        },
        {
          "indexed": true,
          "internalType": "uint256",
          "name": "tokenId",
          "type": "uint256"
        }
      ],
      "name": "Approval",
      "type": "event"
    },
    {
      "anonymous": false,
      "inputs": [
        {
          "indexed": true,
          "internalType": "address",
          "name": "owner",
          "type": "address"
        },
        {
          "indexed": true,
          "internalType": "address",
          "name": "operator",
          "type": "address"
        },
        {
          "indexed": false,
          "internalType": "bool",
          "name": "approved",
          "type": "bool"
        }
      ],
      "name": "ApprovalForAll",
      "type": "event"
    },
    {
      "anonymous": false,
      "inputs": [
        {
          "indexed": true,
          "internalType": "address",
          "name": "previousOwner",
          "type": "address"
        },
        {
          "indexed": true,
          "internalType": "address",
          "name": "newOwner",
          "type": "address"
        }
      ],
      "name": "OwnershipTransferred",
      "type": "event"
    },
    {
      "anonymous": false,
      "inputs": [
        {
          "indexed": true,
          "internalType": "address",
          "name": "from",
          "type": "address"
        },
        {
          "indexed": true,
          "internalType": "address",
          "name": "to",
          "type": "address"
        },
        {
          "indexed": true,
          "internalType": "uint256",
          "name": "tokenId",
          "type": "uint256"
        }
      ],
      "name": "Transfer",
      "type": "event"
    },
    {
      "inputs": [
        {
          "internalType": "address",
          "name": "to",
          "type": "address"
        },
        {
          "internalType": "uint256",
          "name": "tokenId",
          "type": "uint256"
        }
      ],
      "name": "approve",
      "outputs": [],
      "stateMutability": "nonpayable",
      "type": "function"
    },
    {
      "inputs": [
        {
          "internalType": "address",
          "name": "owner",
          "type": "address"
        }
      ],
      "name": "balanceOf",
      "outputs": [
        {
          "internalType": "uint256",
          "name": "",
          "type": "uint256"
        }
      ],
      "stateMutability": "view",
      "type": "function"
    },
    {
      "inputs": [],
      "name": "baseURI",
      "outputs": [
        {
          "internalType": "string",
          "name": "",
          "type": "string"
        }
      ],
      "stateMutability": "view",
      "type": "function"
    },
    {
      "inputs": [],
      "name": "cost",
      "outputs": [
        {
          "internalType": "uint256",
          "name": "",
          "type": "uint256"
        }
      ],
      "stateMutability": "view",
      "type": "function"
    },
    {
      "inputs": [
        {
          "internalType": "uint256",
          "name": "tokenId",
          "type": "uint256"
        }
      ],
      "name": "getApproved",
      "outputs": [
        {
          "internalType": "address",
          "name": "",
          "type": "address"
        }
      ],
      "stateMutability": "view",
      "type": "function"
    },
    {
      "inputs": [
        {
          "internalType": "address",
          "name": "owner",
          "type": "address"
        },
        {
          "internalType": "address",
          "name": "operator",
          "type": "address"
        }
      ],
      "name": "isApprovedForAll",
      "outputs": [
        {
          "internalType": "bool",
          "name": "",
          "type": "bool"
        }
      ],
      "stateMutability": "view",
      "type": "function"
    },
    {
      "inputs": [],
      "name": "maxMintAmount",
      "outputs": [
        {
          "internalType": "uint256",
          "name": "",
          "type": "uint256"
        }
      ],
      "stateMutability": "view",
      "type": "function"
    },
    {
      "inputs": [],
      "name": "maxSupply",
      "outputs": [
        {
          "internalType": "uint256",
          "name": "",
          "type": "uint256"
        }
      ],
      "stateMutability": "view",
      "type": "function"
    },
    {
      "inputs": [],
      "name": "name",
      "outputs": [
        {
          "internalType": "string",
          "name": "",
          "type": "string"
        }
      ],
      "stateMutability": "view",
      "type": "function"
    },
    {
      "inputs": [],
      "name": "owner",
      "outputs": [
        {
          "internalType": "address",
          "name": "",
          "type": "address"
        }
      ],
      "stateMutability": "view",
      "type": "function"
    },
    {
      "inputs": [
        {
          "internalType": "uint256",
          "name": "tokenId",
          "type": "uint256"
        }
      ],
      "name": "ownerOf",
      "outputs": [
        {
          "internalType": "address",
          "name": "",
          "type": "address"
        }
      ],
      "stateMutability": "view",
      "type": "function"
    },
    {
      "inputs": [],
      "name": "paused",
      "outputs": [
        {
          "internalType": "bool",
          "name": "",
          "type": "bool"
        }
      ],
      "stateMutability": "view",
      "type": "function"
    },
    {
      "inputs": [],
      "name": "renounceOwnership",
      "outputs": [],
      "stateMutability": "nonpayable",
      "type": "function"
    },
    {
      "inputs": [],
      "name": "revealed",
      "outputs": [
        {
          "internalType": "bool",
          "name": "",
          "type": "bool"
        }
      ],
      "stateMutability": "view",
      "type": "function"
    },
    {
      "inputs": [
        {
          "internalType": "address",
          "name": "from",
          "type": "address"
        },
        {
          "internalType": "address",
          "name": "to",
          "type": "address"
        },
        {
          "internalType": "uint256",
          "name": "tokenId",
          "type": "uint256"
        }
      ],
      "name": "safeTransferFrom",
      "outputs": [],
      "stateMutability": "nonpayable",
      "type": "function"
    },
    {
      "inputs": [
        {
          "internalType": "address",
          "name": "from",
          "type": "address"
        },
        {
          "internalType": "address",
          "name": "to",
          "type": "address"
        },
        {
          "internalType": "uint256",
          "name": "tokenId",
          "type": "uint256"
        },
        {
          "internalType": "bytes",
          "name": "_data",
          "type": "bytes"
        }
      ],
      "name": "safeTransferFrom",
      "outputs": [],
      "stateMutability": "nonpayable",
      "type": "function"
    },
    {
      "inputs": [
        {
          "internalType": "address",
          "name": "operator",
          "type": "address"
        },
        {
          "internalType": "bool",
          "name": "approved",
          "type": "bool"
        }
      ],
      "name": "setApprovalForAll",
      "outputs": [],
      "stateMutability": "nonpayable",
      "type": "function"
    },
    {
      "inputs": [],
      "name": "symbol",
      "outputs": [
        {
          "internalType": "string",
          "name": "",
          "type": "string"
        }
      ],
      "stateMutability": "view",
      "type": "function"
    },
    {
      "inputs": [
        {
          "internalType": "uint256",
          "name": "index",
          "type": "uint256"
        }
      ],
      "name": "tokenByIndex",
      "outputs": [
        {
          "internalType": "uint256",
          "name": "",
          "type": "uint256"
        }
      ],
      "stateMutability": "view",
      "type": "function"
    },
    {
      "inputs": [
        {
          "internalType": "address",
          "name": "owner",
          "type": "address"
        },
        {
          "internalType": "uint256",
          "name": "index",
          "type": "uint256"
        }
      ],
      "name": "tokenOfOwnerByIndex",
      "outputs": [
        {
          "internalType": "uint256",
          "name": "",
          "type": "uint256"
        }
      ],
      "stateMutability": "view",
      "type": "function"
    },
    {
      "inputs": [],
      "name": "totalSupply",
      "outputs": [
        {
          "internalType": "uint256",
          "name": "",
          "type": "uint256"
        }
      ],
      "stateMutability": "view",
      "type": "function"
    },
    {
      "inputs": [
        {
          "internalType": "address",
          "name": "from",
          "type": "address"
        },
        {
          "internalType": "address",
          "name": "to",
          "type": "address"
        },
        {
          "internalType": "uint256",
          "name": "tokenId",
          "type": "uint256"
        }
      ],
      "name": "transferFrom",
      "outputs": [],
      "stateMutability": "nonpayable",
      "type": "function"
    },
    {
      "inputs": [
        {
          "internalType": "address",
          "name": "newOwner",
          "type": "address"
        }
      ],
      "name": "transferOwnership",
      "outputs": [],
      "stateMutability": "nonpayable",
      "type": "function"
    },
    {
      "inputs": [],
      "name": "unrevealedURI",
      "outputs": [
        {
          "internalType": "string",
          "name": "",
          "type": "string"
        }
      ],
      "stateMutability": "view",
      "type": "function"
    },
    {
      "inputs": [
        {
          "internalType": "uint256",
          "name": "_mintAmount",
          "type": "uint256"
        }
      ],
      "name": "safeMint",
      "outputs": [],
      "stateMutability": "payable",
      "type": "function"
    },
    {
      "inputs": [
        {
          "internalType": "address",
          "name": "_owner",
          "type": "address"
        }
      ],
      "name": "walletOfOwner",
      "outputs": [
        {
          "internalType": "uint256[]",
          "name": "",
          "type": "uint256[]"
        }
      ],
      "stateMutability": "view",
      "type": "function"
    },
    {
      "inputs": [],
      "name": "getCost",
      "outputs": [
        {
          "internalType": "uint256",
          "name": "",
          "type": "uint256"
        }
      ],
      "stateMutability": "view",
      "type": "function"
    },
    {
      "inputs": [
        {
          "internalType": "string[]",
          "name": "arr",
          "type": "string[]"
        }
      ],
      "name": "reveal",
      "outputs": [],
      "stateMutability": "nonpayable",
      "type": "function"
    },
    {
      "inputs": [
        {
          "internalType": "uint256",
          "name": "_cost",
          "type": "uint256"
        }
      ],
      "name": "setCost",
      "outputs": [],
      "stateMutability": "nonpayable",
      "type": "function"
    },
    {
      "inputs": [
        {
          "internalType": "uint256",
          "name": "_maxMintAmount",
          "type": "uint256"
        }
      ],
      "name": "setMaxMinAmount",
      "outputs": [],
      "stateMutability": "nonpayable",
      "type": "function"
    },
    {
      "inputs": [
        {
          "internalType": "string",
          "name": "_unrevealedURI",
          "type": "string"
        }
      ],
      "name": "setUnrevealedURI",
      "outputs": [],
      "stateMutability": "nonpayable",
      "type": "function"
    },
    {
      "inputs": [
        {
          "internalType": "string",
          "name": "_baseURI",
          "type": "string"
        }
      ],
      "name": "setBaseURI",
      "outputs": [],
      "stateMutability": "nonpayable",
      "type": "function"
    },
    {
      "inputs": [
        {
          "internalType": "bool",
          "name": "_state",
          "type": "bool"
        }
      ],
      "name": "pause",
      "outputs": [],
      "stateMutability": "nonpayable",
      "type": "function"
    },
    {
      "inputs": [],
      "name": "withdraw",
      "outputs": [],
      "stateMutability": "payable",
      "type": "function"
    },
    {
      "inputs": [
        {
          "internalType": "uint256",
          "name": "tokenId",
          "type": "uint256"
        }
      ],
      "name": "tokenURI",
      "outputs": [
        {
          "internalType": "string",
          "name": "",
          "type": "string"
        }
      ],
      "stateMutability": "view",
      "type": "function"
    },
    {
      "inputs": [
        {
          "internalType": "bytes4",
          "name": "interfaceId",
          "type": "bytes4"
        }
      ],
      "name": "supportsInterface",
      "outputs": [
        {
          "internalType": "bool",
          "name": "",
          "type": "bool"
        }
      ],
      "stateMutability": "view",
      "type": "function"
    }
  ],
  "bytecode": "0x608060405266b1a2bc2ec50000600f5561138860105560146011556000601260006101000a81548160ff0219169083151502179055506000601260016101000a81548160ff0219169083151502179055503480156200005d57600080fd5b506040516200613c3803806200613c833981810160405281019062000083919062001232565b838381600090805190602001906200009d92919062000fe5565b508060019080519060200190620000b692919062000fe5565b505050620000d9620000cd6200011760201b60201c565b6200011f60201b60201c565b620000ea82620001e560201b60201c565b620000fb816200029060201b60201c565b6200010d60056200033b60201b60201c565b5050505062001a28565b600033905090565b6000600b60009054906101000a900473ffffffffffffffffffffffffffffffffffffffff16905081600b60006101000a81548173ffffffffffffffffffffffffffffffffffffffff021916908373ffffffffffffffffffffffffffffffffffffffff1602179055508173ffffffffffffffffffffffffffffffffffffffff168173ffffffffffffffffffffffffffffffffffffffff167f8be0079c531659141344cd1fd0a4f28419497f9722a3daafe3b4186f6b6457e060405160405180910390a35050565b620001f56200011760201b60201c565b73ffffffffffffffffffffffffffffffffffffffff166200021b6200051460201b60201c565b73ffffffffffffffffffffffffffffffffffffffff161462000274576040517f08c379a00000000000000000000000000000000000000000000000000000000081526004016200026b9062001381565b60405180910390fd5b80600d90805190602001906200028c92919062000fe5565b5050565b620002a06200011760201b60201c565b73ffffffffffffffffffffffffffffffffffffffff16620002c66200051460201b60201c565b73ffffffffffffffffffffffffffffffffffffffff16146200031f576040517f08c379a0000000000000000000000000000000000000000000000000000000008152600401620003169062001381565b60405180910390fd5b80600e90805190602001906200033792919062000fe5565b5050565b60006200034d6200053e60201b60201c565b9050601260009054906101000a900460ff16156200036a57600080fd5b600082116200037857600080fd5b6011548211156200038857600080fd5b6010548282620003999190620013dc565b1115620003a557600080fd5b620003b56200051460201b60201c565b73ffffffffffffffffffffffffffffffffffffffff163373ffffffffffffffffffffffffffffffffffffffff1614620004065781600f54620003f8919062001439565b3410156200040557600080fd5b5b60005b828110156200050f5760006200042b600c6200054b60201b62001a9f1760201c565b905062000444600c6200055960201b62001aad1760201c565b6200045633826200056f60201b60201c565b620004fa81600e80546200046a90620014c9565b80601f01602080910402602001604051908101604052809291908181526020018280546200049890620014c9565b8015620004e95780601f10620004bd57610100808354040283529160200191620004e9565b820191906000526020600020905b815481529060010190602001808311620004cb57829003601f168201915b50505050506200059560201b60201c565b50806200050790620014ff565b905062000409565b505050565b6000600b60009054906101000a900473ffffffffffffffffffffffffffffffffffffffff16905090565b6000600880549050905090565b600081600001549050919050565b6001816000016000828254019250508190555050565b620005918282604051806020016040528060008152506200061660201b60201c565b5050565b620005a6826200068460201b60201c565b620005e8576040517f08c379a0000000000000000000000000000000000000000000000000000000008152600401620005df90620015c3565b60405180910390fd5b80600a600084815260200190815260200160002090805190602001906200061192919062000fe5565b505050565b620006288383620006f060201b60201c565b6200063d6000848484620008d660201b60201c565b6200067f576040517f08c379a000000000000000000000000000000000000000000000000000000000815260040162000676906200165b565b60405180910390fd5b505050565b60008073ffffffffffffffffffffffffffffffffffffffff166002600084815260200190815260200160002060009054906101000a900473ffffffffffffffffffffffffffffffffffffffff1673ffffffffffffffffffffffffffffffffffffffff1614159050919050565b600073ffffffffffffffffffffffffffffffffffffffff168273ffffffffffffffffffffffffffffffffffffffff16141562000763576040517f08c379a00000000000000000000000000000000000000000000000000000000081526004016200075a90620016cd565b60405180910390fd5b62000774816200068460201b60201c565b15620007b7576040517f08c379a0000000000000000000000000000000000000000000000000000000008152600401620007ae906200173f565b60405180910390fd5b620007cb6000838362000a8060201b60201c565b6001600360008473ffffffffffffffffffffffffffffffffffffffff1673ffffffffffffffffffffffffffffffffffffffff16815260200190815260200160002060008282546200081d9190620013dc565b92505081905550816002600083815260200190815260200160002060006101000a81548173ffffffffffffffffffffffffffffffffffffffff021916908373ffffffffffffffffffffffffffffffffffffffff160217905550808273ffffffffffffffffffffffffffffffffffffffff16600073ffffffffffffffffffffffffffffffffffffffff167fddf252ad1be2c89b69c2b068fc378daa952ba7f163c4a11628f55a4df523b3ef60405160405180910390a45050565b6000620009048473ffffffffffffffffffffffffffffffffffffffff1662000a9d60201b62001ac31760201c565b1562000a73578373ffffffffffffffffffffffffffffffffffffffff1663150b7a02620009366200011760201b60201c565b8786866040518563ffffffff1660e01b81526004016200095a949392919062001814565b6020604051808303816000875af19250505080156200099957506040513d601f19601f82011682018060405250810190620009969190620018c5565b60015b62000a22573d8060008114620009cc576040519150601f19603f3d011682016040523d82523d6000602084013e620009d1565b606091505b5060008151141562000a1a576040517f08c379a000000000000000000000000000000000000000000000000000000000815260040162000a11906200165b565b60405180910390fd5b805181602001fd5b63150b7a0260e01b7bffffffffffffffffffffffffffffffffffffffffffffffffffffffff1916817bffffffffffffffffffffffffffffffffffffffffffffffffffffffff19161491505062000a78565b600190505b949350505050565b62000a9883838362000ab060201b62001ad61760201c565b505050565b600080823b905060008111915050919050565b62000ac883838362000bf760201b62001bea1760201c565b600073ffffffffffffffffffffffffffffffffffffffff168373ffffffffffffffffffffffffffffffffffffffff16141562000b155762000b0f8162000bfc60201b60201c565b62000b5d565b8173ffffffffffffffffffffffffffffffffffffffff168373ffffffffffffffffffffffffffffffffffffffff161462000b5c5762000b5b838262000c4560201b60201c565b5b5b600073ffffffffffffffffffffffffffffffffffffffff168273ffffffffffffffffffffffffffffffffffffffff16141562000baa5762000ba48162000dc260201b60201c565b62000bf2565b8273ffffffffffffffffffffffffffffffffffffffff168273ffffffffffffffffffffffffffffffffffffffff161462000bf15762000bf0828262000e9e60201b60201c565b5b5b505050565b505050565b6008805490506009600083815260200190815260200160002081905550600881908060018154018082558091505060019003906000526020600020016000909190919091505550565b6000600162000c5f8462000f2a60201b620013f61760201c565b62000c6b9190620018f7565b905060006007600084815260200190815260200160002054905081811462000d51576000600660008673ffffffffffffffffffffffffffffffffffffffff1673ffffffffffffffffffffffffffffffffffffffff168152602001908152602001600020600084815260200190815260200160002054905080600660008773ffffffffffffffffffffffffffffffffffffffff1673ffffffffffffffffffffffffffffffffffffffff168152602001908152602001600020600084815260200190815260200160002081905550816007600083815260200190815260200160002081905550505b6007600084815260200190815260200160002060009055600660008573ffffffffffffffffffffffffffffffffffffffff1673ffffffffffffffffffffffffffffffffffffffff16815260200190815260200160002060008381526020019081526020016000206000905550505050565b6000600160088054905062000dd89190620018f7565b905060006009600084815260200190815260200160002054905060006008838154811062000e0b5762000e0a62001932565b5b90600052602060002001549050806008838154811062000e305762000e2f62001932565b5b90600052602060002001819055508160096000838152602001908152602001600020819055506009600085815260200190815260200160002060009055600880548062000e825762000e8162001961565b5b6001900381819060005260206000200160009055905550505050565b600062000eb68362000f2a60201b620013f61760201c565b905081600660008573ffffffffffffffffffffffffffffffffffffffff1673ffffffffffffffffffffffffffffffffffffffff168152602001908152602001600020600083815260200190815260200160002081905550806007600084815260200190815260200160002081905550505050565b60008073ffffffffffffffffffffffffffffffffffffffff168273ffffffffffffffffffffffffffffffffffffffff16141562000f9e576040517f08c379a000000000000000000000000000000000000000000000000000000000815260040162000f959062001a06565b60405180910390fd5b600360008373ffffffffffffffffffffffffffffffffffffffff1673ffffffffffffffffffffffffffffffffffffffff168152602001908152602001600020549050919050565b82805462000ff390620014c9565b90600052602060002090601f01602090048101928262001017576000855562001063565b82601f106200103257805160ff191683800117855562001063565b8280016001018555821562001063579182015b828111156200106257825182559160200191906001019062001045565b5b50905062001072919062001076565b5090565b5b808211156200109157600081600090555060010162001077565b5090565b6000604051905090565b600080fd5b600080fd5b600080fd5b600080fd5b6000601f19601f8301169050919050565b7f4e487b7100000000000000000000000000000000000000000000000000000000600052604160045260246000fd5b620010fe82620010b3565b810181811067ffffffffffffffff8211171562001120576200111f620010c4565b5b80604052505050565b60006200113562001095565b9050620011438282620010f3565b919050565b600067ffffffffffffffff821115620011665762001165620010c4565b5b6200117182620010b3565b9050602081019050919050565b60005b838110156200119e57808201518184015260208101905062001181565b83811115620011ae576000848401525b50505050565b6000620011cb620011c58462001148565b62001129565b905082815260208101848484011115620011ea57620011e9620010ae565b5b620011f78482856200117e565b509392505050565b600082601f830112620012175762001216620010a9565b5b815162001229848260208601620011b4565b91505092915050565b600080600080608085870312156200124f576200124e6200109f565b5b600085015167ffffffffffffffff81111562001270576200126f620010a4565b5b6200127e87828801620011ff565b945050602085015167ffffffffffffffff811115620012a257620012a1620010a4565b5b620012b087828801620011ff565b935050604085015167ffffffffffffffff811115620012d457620012d3620010a4565b5b620012e287828801620011ff565b925050606085015167ffffffffffffffff811115620013065762001305620010a4565b5b6200131487828801620011ff565b91505092959194509250565b600082825260208201905092915050565b7f4f776e61626c653a2063616c6c6572206973206e6f7420746865206f776e6572600082015250565b60006200136960208362001320565b9150620013768262001331565b602082019050919050565b600060208201905081810360008301526200139c816200135a565b9050919050565b6000819050919050565b7f4e487b7100000000000000000000000000000000000000000000000000000000600052601160045260246000fd5b6000620013e982620013a3565b9150620013f683620013a3565b9250827fffffffffffffffffffffffffffffffffffffffffffffffffffffffffffffffff038211156200142e576200142d620013ad565b5b828201905092915050565b60006200144682620013a3565b91506200145383620013a3565b9250817fffffffffffffffffffffffffffffffffffffffffffffffffffffffffffffffff04831182151516156200148f576200148e620013ad565b5b828202905092915050565b7f4e487b7100000000000000000000000000000000000000000000000000000000600052602260045260246000fd5b60006002820490506001821680620014e257607f821691505b60208210811415620014f957620014f86200149a565b5b50919050565b60006200150c82620013a3565b91507fffffffffffffffffffffffffffffffffffffffffffffffffffffffffffffffff821415620015425762001541620013ad565b5b600182019050919050565b7f45524337323155524953746f726167653a2055524920736574206f66206e6f6e60008201527f6578697374656e7420746f6b656e000000000000000000000000000000000000602082015250565b6000620015ab602e8362001320565b9150620015b8826200154d565b604082019050919050565b60006020820190508181036000830152620015de816200159c565b9050919050565b7f4552433732313a207472616e7366657220746f206e6f6e20455243373231526560008201527f63656976657220696d706c656d656e7465720000000000000000000000000000602082015250565b60006200164360328362001320565b91506200165082620015e5565b604082019050919050565b60006020820190508181036000830152620016768162001634565b9050919050565b7f4552433732313a206d696e7420746f20746865207a65726f2061646472657373600082015250565b6000620016b560208362001320565b9150620016c2826200167d565b602082019050919050565b60006020820190508181036000830152620016e881620016a6565b9050919050565b7f4552433732313a20746f6b656e20616c7265616479206d696e74656400000000600082015250565b600062001727601c8362001320565b91506200173482620016ef565b602082019050919050565b600060208201905081810360008301526200175a8162001718565b9050919050565b600073ffffffffffffffffffffffffffffffffffffffff82169050919050565b60006200178e8262001761565b9050919050565b620017a08162001781565b82525050565b620017b181620013a3565b82525050565b600081519050919050565b600082825260208201905092915050565b6000620017e082620017b7565b620017ec8185620017c2565b9350620017fe8185602086016200117e565b6200180981620010b3565b840191505092915050565b60006080820190506200182b600083018762001795565b6200183a602083018662001795565b620018496040830185620017a6565b81810360608301526200185d8184620017d3565b905095945050505050565b60007fffffffff0000000000000000000000000000000000000000000000000000000082169050919050565b6200189f8162001868565b8114620018ab57600080fd5b50565b600081519050620018bf8162001894565b92915050565b600060208284031215620018de57620018dd6200109f565b5b6000620018ee84828501620018ae565b91505092915050565b60006200190482620013a3565b91506200191183620013a3565b925082821015620019275762001926620013ad565b5b828203905092915050565b7f4e487b7100000000000000000000000000000000000000000000000000000000600052603260045260246000fd5b7f4e487b7100000000000000000000000000000000000000000000000000000000600052603160045260246000fd5b7f4552433732313a2062616c616e636520717565727920666f7220746865207a6560008201527f726f206164647265737300000000000000000000000000000000000000000000602082015250565b6000620019ee602a8362001320565b9150620019fb8262001990565b604082019050919050565b6000602082019050818103600083015262001a2181620019df565b9050919050565b6147048062001a386000396000f3fe60806040526004361061020f5760003560e01c806355f804b311610118578063a22cb465116100a0578063c87b56dd1161006f578063c87b56dd1461076f578063d5abeb01146107ac578063e985e9c5146107d7578063f2fde38b14610814578063fe2c7fee1461083d5761020f565b8063a22cb465146106c9578063b88d4fde146106f2578063bd3e19d41461071b578063bf6b8995146107465761020f565b80637035bf18116100e75780637035bf18146105f457806370a082311461061f578063715018a61461065c5780638da5cb5b1461067357806395d89b411461069e5761020f565b806355f804b3146105385780635c975abb146105615780636352211e1461058c5780636c0360eb146105c95761020f565b80632f745c591161019b578063438b63001161016a578063438b63001461044157806344a0d68a1461047e57806346aa47eb146104a75780634f6ccce7146104d0578063518302271461050d5761020f565b80632f745c59146103b557806331c864e8146103f25780633ccfd60b1461040e57806342842e0e146104185761020f565b8063095ea7b3116101e2578063095ea7b3146102e257806313faede61461030b57806318160ddd14610336578063239c70ae1461036157806323b872dd1461038c5761020f565b806301ffc9a71461021457806302329a291461025157806306fdde031461027a578063081812fc146102a5575b600080fd5b34801561022057600080fd5b5061023b60048036038101906102369190612f92565b610866565b6040516102489190612fda565b60405180910390f35b34801561025d57600080fd5b5061027860048036038101906102739190613021565b610878565b005b34801561028657600080fd5b5061028f610911565b60405161029c91906130e7565b60405180910390f35b3480156102b157600080fd5b506102cc60048036038101906102c7919061313f565b6109a3565b6040516102d991906131ad565b60405180910390f35b3480156102ee57600080fd5b50610309600480360381019061030491906131f4565b610a28565b005b34801561031757600080fd5b50610320610b40565b60405161032d9190613243565b60405180910390f35b34801561034257600080fd5b5061034b610b46565b6040516103589190613243565b60405180910390f35b34801561036d57600080fd5b50610376610b53565b6040516103839190613243565b60405180910390f35b34801561039857600080fd5b506103b360048036038101906103ae919061325e565b610b59565b005b3480156103c157600080fd5b506103dc60048036038101906103d791906131f4565b610bb9565b6040516103e99190613243565b60405180910390f35b61040c6004803603810190610407919061313f565b610c5e565b005b610416610de7565b005b34801561042457600080fd5b5061043f600480360381019061043a919061325e565b610ea3565b005b34801561044d57600080fd5b50610468600480360381019061046391906132b1565b610ec3565b604051610475919061339c565b60405180910390f35b34801561048a57600080fd5b506104a560048036038101906104a0919061313f565b610f6f565b005b3480156104b357600080fd5b506104ce60048036038101906104c991906135d9565b610ff5565b005b3480156104dc57600080fd5b506104f760048036038101906104f2919061313f565b6110fb565b6040516105049190613243565b60405180910390f35b34801561051957600080fd5b5061052261116c565b60405161052f9190612fda565b60405180910390f35b34801561054457600080fd5b5061055f600480360381019061055a9190613622565b61117f565b005b34801561056d57600080fd5b50610576611215565b6040516105839190612fda565b60405180910390f35b34801561059857600080fd5b506105b360048036038101906105ae919061313f565b611228565b6040516105c091906131ad565b60405180910390f35b3480156105d557600080fd5b506105de6112da565b6040516105eb91906130e7565b60405180910390f35b34801561060057600080fd5b50610609611368565b60405161061691906130e7565b60405180910390f35b34801561062b57600080fd5b50610646600480360381019061064191906132b1565b6113f6565b6040516106539190613243565b60405180910390f35b34801561066857600080fd5b506106716114ae565b005b34801561067f57600080fd5b50610688611536565b60405161069591906131ad565b60405180910390f35b3480156106aa57600080fd5b506106b3611560565b6040516106c091906130e7565b60405180910390f35b3480156106d557600080fd5b506106f060048036038101906106eb919061366b565b6115f2565b005b3480156106fe57600080fd5b506107196004803603810190610714919061374c565b611773565b005b34801561072757600080fd5b506107306117d5565b60405161073d9190613243565b60405180910390f35b34801561075257600080fd5b5061076d6004803603810190610768919061313f565b6117df565b005b34801561077b57600080fd5b506107966004803603810190610791919061313f565b611865565b6040516107a391906130e7565b60405180910390f35b3480156107b857600080fd5b506107c1611877565b6040516107ce9190613243565b60405180910390f35b3480156107e357600080fd5b506107fe60048036038101906107f991906137cf565b61187d565b60405161080b9190612fda565b60405180910390f35b34801561082057600080fd5b5061083b600480360381019061083691906132b1565b611911565b005b34801561084957600080fd5b50610864600480360381019061085f9190613622565b611a09565b005b600061087182611bef565b9050919050565b610880611c69565b73ffffffffffffffffffffffffffffffffffffffff1661089e611536565b73ffffffffffffffffffffffffffffffffffffffff16146108f4576040517f08c379a00000000000000000000000000000000000000000000000000000000081526004016108eb9061385b565b60405180910390fd5b80601260006101000a81548160ff02191690831515021790555050565b606060008054610920906138aa565b80601f016020809104026020016040519081016040528092919081815260200182805461094c906138aa565b80156109995780601f1061096e57610100808354040283529160200191610999565b820191906000526020600020905b81548152906001019060200180831161097c57829003601f168201915b5050505050905090565b60006109ae82611c71565b6109ed576040517f08c379a00000000000000000000000000000000000000000000000000000000081526004016109e49061394e565b60405180910390fd5b6004600083815260200190815260200160002060009054906101000a900473ffffffffffffffffffffffffffffffffffffffff169050919050565b6000610a3382611228565b90508073ffffffffffffffffffffffffffffffffffffffff168373ffffffffffffffffffffffffffffffffffffffff161415610aa4576040517f08c379a0000000000000000000000000000000000000000000000000000000008152600401610a9b906139e0565b60405180910390fd5b8073ffffffffffffffffffffffffffffffffffffffff16610ac3611c69565b73ffffffffffffffffffffffffffffffffffffffff161480610af25750610af181610aec611c69565b61187d565b5b610b31576040517f08c379a0000000000000000000000000000000000000000000000000000000008152600401610b2890613a72565b60405180910390fd5b610b3b8383611cdd565b505050565b600f5481565b6000600880549050905090565b60115481565b610b6a610b64611c69565b82611d96565b610ba9576040517f08c379a0000000000000000000000000000000000000000000000000000000008152600401610ba090613b04565b60405180910390fd5b610bb4838383611e74565b505050565b6000610bc4836113f6565b8210610c05576040517f08c379a0000000000000000000000000000000000000000000000000000000008152600401610bfc90613b96565b60405180910390fd5b600660008473ffffffffffffffffffffffffffffffffffffffff1673ffffffffffffffffffffffffffffffffffffffff168152602001908152602001600020600083815260200190815260200160002054905092915050565b6000610c68610b46565b9050601260009054906101000a900460ff1615610c8457600080fd5b60008211610c9157600080fd5b601154821115610ca057600080fd5b6010548282610caf9190613be5565b1115610cba57600080fd5b610cc2611536565b73ffffffffffffffffffffffffffffffffffffffff163373ffffffffffffffffffffffffffffffffffffffff1614610d0f5781600f54610d029190613c3b565b341015610d0e57600080fd5b5b60005b82811015610de2576000610d26600c611a9f565b9050610d32600c611aad565b610d3c33826120d0565b610dd081600e8054610d4d906138aa565b80601f0160208091040260200160405190810160405280929190818152602001828054610d79906138aa565b8015610dc65780601f10610d9b57610100808354040283529160200191610dc6565b820191906000526020600020905b815481529060010190602001808311610da957829003601f168201915b50505050506120ee565b5080610ddb90613c95565b9050610d12565b505050565b610def611c69565b73ffffffffffffffffffffffffffffffffffffffff16610e0d611536565b73ffffffffffffffffffffffffffffffffffffffff1614610e63576040517f08c379a0000000000000000000000000000000000000000000000000000000008152600401610e5a9061385b565b60405180910390fd5b3373ffffffffffffffffffffffffffffffffffffffff166108fc479081150290604051600060405180830381858888f19350505050610ea157600080fd5b565b610ebe83838360405180602001604052806000815250611773565b505050565b60606000610ed0836113f6565b905060008167ffffffffffffffff811115610eee57610eed6133c3565b5b604051908082528060200260200182016040528015610f1c5781602001602082028036833780820191505090505b50905060005b82811015610f6457610f348582610bb9565b828281518110610f4757610f46613cde565b5b60200260200101818152505080610f5d90613c95565b9050610f22565b508092505050919050565b610f77611c69565b73ffffffffffffffffffffffffffffffffffffffff16610f95611536565b73ffffffffffffffffffffffffffffffffffffffff1614610feb576040517f08c379a0000000000000000000000000000000000000000000000000000000008152600401610fe29061385b565b60405180910390fd5b80600f8190555050565b610ffd611c69565b73ffffffffffffffffffffffffffffffffffffffff1661101b611536565b73ffffffffffffffffffffffffffffffffffffffff1614611071576040517f08c379a00000000000000000000000000000000000000000000000000000000081526004016110689061385b565b60405180910390fd5b601260019054906101000a900460ff161561108b57600080fd5b6001601260016101000a81548160ff0219169083151502179055506110b06001610878565b60005b6110bb610b46565b8110156110f7576110e6818383815181106110d9576110d8613cde565b5b60200260200101516120ee565b806110f090613c95565b90506110b3565b5050565b6000611105610b46565b8210611146576040517f08c379a000000000000000000000000000000000000000000000000000000000815260040161113d90613d7f565b60405180910390fd5b6008828154811061115a57611159613cde565b5b90600052602060002001549050919050565b601260019054906101000a900460ff1681565b611187611c69565b73ffffffffffffffffffffffffffffffffffffffff166111a5611536565b73ffffffffffffffffffffffffffffffffffffffff16146111fb576040517f08c379a00000000000000000000000000000000000000000000000000000000081526004016111f29061385b565b60405180910390fd5b80600d9080519060200190611211929190612e83565b5050565b601260009054906101000a900460ff1681565b6000806002600084815260200190815260200160002060009054906101000a900473ffffffffffffffffffffffffffffffffffffffff169050600073ffffffffffffffffffffffffffffffffffffffff168173ffffffffffffffffffffffffffffffffffffffff1614156112d1576040517f08c379a00000000000000000000000000000000000000000000000000000000081526004016112c890613e11565b60405180910390fd5b80915050919050565b600d80546112e7906138aa565b80601f0160208091040260200160405190810160405280929190818152602001828054611313906138aa565b80156113605780601f1061133557610100808354040283529160200191611360565b820191906000526020600020905b81548152906001019060200180831161134357829003601f168201915b505050505081565b600e8054611375906138aa565b80601f01602080910402602001604051908101604052809291908181526020018280546113a1906138aa565b80156113ee5780601f106113c3576101008083540402835291602001916113ee565b820191906000526020600020905b8154815290600101906020018083116113d157829003601f168201915b505050505081565b60008073ffffffffffffffffffffffffffffffffffffffff168273ffffffffffffffffffffffffffffffffffffffff161415611467576040517f08c379a000000000000000000000000000000000000000000000000000000000815260040161145e90613ea3565b60405180910390fd5b600360008373ffffffffffffffffffffffffffffffffffffffff1673ffffffffffffffffffffffffffffffffffffffff168152602001908152602001600020549050919050565b6114b6611c69565b73ffffffffffffffffffffffffffffffffffffffff166114d4611536565b73ffffffffffffffffffffffffffffffffffffffff161461152a576040517f08c379a00000000000000000000000000000000000000000000000000000000081526004016115219061385b565b60405180910390fd5b6115346000612162565b565b6000600b60009054906101000a900473ffffffffffffffffffffffffffffffffffffffff16905090565b60606001805461156f906138aa565b80601f016020809104026020016040519081016040528092919081815260200182805461159b906138aa565b80156115e85780601f106115bd576101008083540402835291602001916115e8565b820191906000526020600020905b8154815290600101906020018083116115cb57829003601f168201915b5050505050905090565b6115fa611c69565b73ffffffffffffffffffffffffffffffffffffffff168273ffffffffffffffffffffffffffffffffffffffff161415611668576040517f08c379a000000000000000000000000000000000000000000000000000000000815260040161165f90613f0f565b60405180910390fd5b8060056000611675611c69565b73ffffffffffffffffffffffffffffffffffffffff1673ffffffffffffffffffffffffffffffffffffffff16815260200190815260200160002060008473ffffffffffffffffffffffffffffffffffffffff1673ffffffffffffffffffffffffffffffffffffffff16815260200190815260200160002060006101000a81548160ff0219169083151502179055508173ffffffffffffffffffffffffffffffffffffffff16611722611c69565b73ffffffffffffffffffffffffffffffffffffffff167f17307eab39ab6107e8899845ad3d59bd9653f200f220920489ca2b5937696c31836040516117679190612fda565b60405180910390a35050565b61178461177e611c69565b83611d96565b6117c3576040517f08c379a00000000000000000000000000000000000000000000000000000000081526004016117ba90613b04565b60405180910390fd5b6117cf84848484612228565b50505050565b6000600f54905090565b6117e7611c69565b73ffffffffffffffffffffffffffffffffffffffff16611805611536565b73ffffffffffffffffffffffffffffffffffffffff161461185b576040517f08c379a00000000000000000000000000000000000000000000000000000000081526004016118529061385b565b60405180910390fd5b8060118190555050565b606061187082612284565b9050919050565b60105481565b6000600560008473ffffffffffffffffffffffffffffffffffffffff1673ffffffffffffffffffffffffffffffffffffffff16815260200190815260200160002060008373ffffffffffffffffffffffffffffffffffffffff1673ffffffffffffffffffffffffffffffffffffffff16815260200190815260200160002060009054906101000a900460ff16905092915050565b611919611c69565b73ffffffffffffffffffffffffffffffffffffffff16611937611536565b73ffffffffffffffffffffffffffffffffffffffff161461198d576040517f08c379a00000000000000000000000000000000000000000000000000000000081526004016119849061385b565b60405180910390fd5b600073ffffffffffffffffffffffffffffffffffffffff168173ffffffffffffffffffffffffffffffffffffffff1614156119fd576040517f08c379a00000000000000000000000000000000000000000000000000000000081526004016119f490613fa1565b60405180910390fd5b611a0681612162565b50565b611a11611c69565b73ffffffffffffffffffffffffffffffffffffffff16611a2f611536565b73ffffffffffffffffffffffffffffffffffffffff1614611a85576040517f08c379a0000000000000000000000000000000000000000000000000000000008152600401611a7c9061385b565b60405180910390fd5b80600e9080519060200190611a9b929190612e83565b5050565b600081600001549050919050565b6001816000016000828254019250508190555050565b600080823b905060008111915050919050565b611ae1838383611bea565b600073ffffffffffffffffffffffffffffffffffffffff168373ffffffffffffffffffffffffffffffffffffffff161415611b2457611b1f816123d6565b611b63565b8173ffffffffffffffffffffffffffffffffffffffff168373ffffffffffffffffffffffffffffffffffffffff1614611b6257611b61838261241f565b5b5b600073ffffffffffffffffffffffffffffffffffffffff168273ffffffffffffffffffffffffffffffffffffffff161415611ba657611ba18161258c565b611be5565b8273ffffffffffffffffffffffffffffffffffffffff168273ffffffffffffffffffffffffffffffffffffffff1614611be457611be3828261265d565b5b5b505050565b505050565b60007f780e9d63000000000000000000000000000000000000000000000000000000007bffffffffffffffffffffffffffffffffffffffffffffffffffffffff1916827bffffffffffffffffffffffffffffffffffffffffffffffffffffffff19161480611c625750611c61826126dc565b5b9050919050565b600033905090565b60008073ffffffffffffffffffffffffffffffffffffffff166002600084815260200190815260200160002060009054906101000a900473ffffffffffffffffffffffffffffffffffffffff1673ffffffffffffffffffffffffffffffffffffffff1614159050919050565b816004600083815260200190815260200160002060006101000a81548173ffffffffffffffffffffffffffffffffffffffff021916908373ffffffffffffffffffffffffffffffffffffffff160217905550808273ffffffffffffffffffffffffffffffffffffffff16611d5083611228565b73ffffffffffffffffffffffffffffffffffffffff167f8c5be1e5ebec7d5bd14f71427d1e84f3dd0314c0f7b2291e5b200ac8c7c3b92560405160405180910390a45050565b6000611da182611c71565b611de0576040517f08c379a0000000000000000000000000000000000000000000000000000000008152600401611dd790614033565b60405180910390fd5b6000611deb83611228565b90508073ffffffffffffffffffffffffffffffffffffffff168473ffffffffffffffffffffffffffffffffffffffff161480611e5a57508373ffffffffffffffffffffffffffffffffffffffff16611e42846109a3565b73ffffffffffffffffffffffffffffffffffffffff16145b80611e6b5750611e6a818561187d565b5b91505092915050565b8273ffffffffffffffffffffffffffffffffffffffff16611e9482611228565b73ffffffffffffffffffffffffffffffffffffffff1614611eea576040517f08c379a0000000000000000000000000000000000000000000000000000000008152600401611ee1906140c5565b60405180910390fd5b600073ffffffffffffffffffffffffffffffffffffffff168273ffffffffffffffffffffffffffffffffffffffff161415611f5a576040517f08c379a0000000000000000000000000000000000000000000000000000000008152600401611f5190614157565b60405180910390fd5b611f658383836127be565b611f70600082611cdd565b6001600360008573ffffffffffffffffffffffffffffffffffffffff1673ffffffffffffffffffffffffffffffffffffffff1681526020019081526020016000206000828254611fc09190614177565b925050819055506001600360008473ffffffffffffffffffffffffffffffffffffffff1673ffffffffffffffffffffffffffffffffffffffff16815260200190815260200160002060008282546120179190613be5565b92505081905550816002600083815260200190815260200160002060006101000a81548173ffffffffffffffffffffffffffffffffffffffff021916908373ffffffffffffffffffffffffffffffffffffffff160217905550808273ffffffffffffffffffffffffffffffffffffffff168473ffffffffffffffffffffffffffffffffffffffff167fddf252ad1be2c89b69c2b068fc378daa952ba7f163c4a11628f55a4df523b3ef60405160405180910390a4505050565b6120ea8282604051806020016040528060008152506127ce565b5050565b6120f782611c71565b612136576040517f08c379a000000000000000000000000000000000000000000000000000000000815260040161212d9061421d565b60405180910390fd5b80600a6000848152602001908152602001600020908051906020019061215d929190612e83565b505050565b6000600b60009054906101000a900473ffffffffffffffffffffffffffffffffffffffff16905081600b60006101000a81548173ffffffffffffffffffffffffffffffffffffffff021916908373ffffffffffffffffffffffffffffffffffffffff1602179055508173ffffffffffffffffffffffffffffffffffffffff168173ffffffffffffffffffffffffffffffffffffffff167f8be0079c531659141344cd1fd0a4f28419497f9722a3daafe3b4186f6b6457e060405160405180910390a35050565b612233848484611e74565b61223f84848484612829565b61227e576040517f08c379a0000000000000000000000000000000000000000000000000000000008152600401612275906142af565b60405180910390fd5b50505050565b606061228f82611c71565b6122ce576040517f08c379a00000000000000000000000000000000000000000000000000000000081526004016122c590614341565b60405180910390fd5b6000600a600084815260200190815260200160002080546122ee906138aa565b80601f016020809104026020016040519081016040528092919081815260200182805461231a906138aa565b80156123675780601f1061233c57610100808354040283529160200191612367565b820191906000526020600020905b81548152906001019060200180831161234a57829003601f168201915b5050505050905060006123786129b1565b905060008151141561238e5781925050506123d1565b6000825111156123c35780826040516020016123ab92919061439d565b604051602081830303815290604052925050506123d1565b6123cc84612a43565b925050505b919050565b6008805490506009600083815260200190815260200160002081905550600881908060018154018082558091505060019003906000526020600020016000909190919091505550565b6000600161242c846113f6565b6124369190614177565b905060006007600084815260200190815260200160002054905081811461251b576000600660008673ffffffffffffffffffffffffffffffffffffffff1673ffffffffffffffffffffffffffffffffffffffff168152602001908152602001600020600084815260200190815260200160002054905080600660008773ffffffffffffffffffffffffffffffffffffffff1673ffffffffffffffffffffffffffffffffffffffff168152602001908152602001600020600084815260200190815260200160002081905550816007600083815260200190815260200160002081905550505b6007600084815260200190815260200160002060009055600660008573ffffffffffffffffffffffffffffffffffffffff1673ffffffffffffffffffffffffffffffffffffffff16815260200190815260200160002060008381526020019081526020016000206000905550505050565b600060016008805490506125a09190614177565b90506000600960008481526020019081526020016000205490506000600883815481106125d0576125cf613cde565b5b9060005260206000200154905080600883815481106125f2576125f1613cde565b5b906000526020600020018190555081600960008381526020019081526020016000208190555060096000858152602001908152602001600020600090556008805480612641576126406143c1565b5b6001900381819060005260206000200160009055905550505050565b6000612668836113f6565b905081600660008573ffffffffffffffffffffffffffffffffffffffff1673ffffffffffffffffffffffffffffffffffffffff168152602001908152602001600020600083815260200190815260200160002081905550806007600084815260200190815260200160002081905550505050565b60007f80ac58cd000000000000000000000000000000000000000000000000000000007bffffffffffffffffffffffffffffffffffffffffffffffffffffffff1916827bffffffffffffffffffffffffffffffffffffffffffffffffffffffff191614806127a757507f5b5e139f000000000000000000000000000000000000000000000000000000007bffffffffffffffffffffffffffffffffffffffffffffffffffffffff1916827bffffffffffffffffffffffffffffffffffffffffffffffffffffffff1916145b806127b757506127b682612aea565b5b9050919050565b6127c9838383611ad6565b505050565b6127d88383612b54565b6127e56000848484612829565b612824576040517f08c379a000000000000000000000000000000000000000000000000000000000815260040161281b906142af565b60405180910390fd5b505050565b600061284a8473ffffffffffffffffffffffffffffffffffffffff16611ac3565b156129a4578373ffffffffffffffffffffffffffffffffffffffff1663150b7a02612873611c69565b8786866040518563ffffffff1660e01b81526004016128959493929190614445565b6020604051808303816000875af19250505080156128d157506040513d601f19601f820116820180604052508101906128ce91906144a6565b60015b612954573d8060008114612901576040519150601f19603f3d011682016040523d82523d6000602084013e612906565b606091505b5060008151141561294c576040517f08c379a0000000000000000000000000000000000000000000000000000000008152600401612943906142af565b60405180910390fd5b805181602001fd5b63150b7a0260e01b7bffffffffffffffffffffffffffffffffffffffffffffffffffffffff1916817bffffffffffffffffffffffffffffffffffffffffffffffffffffffff1916149150506129a9565b600190505b949350505050565b6060600d80546129c0906138aa565b80601f01602080910402602001604051908101604052809291908181526020018280546129ec906138aa565b8015612a395780601f10612a0e57610100808354040283529160200191612a39565b820191906000526020600020905b815481529060010190602001808311612a1c57829003601f168201915b5050505050905090565b6060612a4e82611c71565b612a8d576040517f08c379a0000000000000000000000000000000000000000000000000000000008152600401612a8490614545565b60405180910390fd5b6000612a976129b1565b90506000815111612ab75760405180602001604052806000815250612ae2565b80612ac184612d22565b604051602001612ad292919061439d565b6040516020818303038152906040525b915050919050565b60007f01ffc9a7000000000000000000000000000000000000000000000000000000007bffffffffffffffffffffffffffffffffffffffffffffffffffffffff1916827bffffffffffffffffffffffffffffffffffffffffffffffffffffffff1916149050919050565b600073ffffffffffffffffffffffffffffffffffffffff168273ffffffffffffffffffffffffffffffffffffffff161415612bc4576040517f08c379a0000000000000000000000000000000000000000000000000000000008152600401612bbb906145b1565b60405180910390fd5b612bcd81611c71565b15612c0d576040517f08c379a0000000000000000000000000000000000000000000000000000000008152600401612c049061461d565b60405180910390fd5b612c19600083836127be565b6001600360008473ffffffffffffffffffffffffffffffffffffffff1673ffffffffffffffffffffffffffffffffffffffff1681526020019081526020016000206000828254612c699190613be5565b92505081905550816002600083815260200190815260200160002060006101000a81548173ffffffffffffffffffffffffffffffffffffffff021916908373ffffffffffffffffffffffffffffffffffffffff160217905550808273ffffffffffffffffffffffffffffffffffffffff16600073ffffffffffffffffffffffffffffffffffffffff167fddf252ad1be2c89b69c2b068fc378daa952ba7f163c4a11628f55a4df523b3ef60405160405180910390a45050565b60606000821415612d6a576040518060400160405280600181526020017f30000000000000000000000000000000000000000000000000000000000000008152509050612e7e565b600082905060005b60008214612d9c578080612d8590613c95565b915050600a82612d95919061466c565b9150612d72565b60008167ffffffffffffffff811115612db857612db76133c3565b5b6040519080825280601f01601f191660200182016040528015612dea5781602001600182028036833780820191505090505b5090505b60008514612e7757600182612e039190614177565b9150600a85612e12919061469d565b6030612e1e9190613be5565b60f81b818381518110612e3457612e33613cde565b5b60200101907effffffffffffffffffffffffffffffffffffffffffffffffffffffffffffff1916908160001a905350600a85612e70919061466c565b9450612dee565b8093505050505b919050565b828054612e8f906138aa565b90600052602060002090601f016020900481019282612eb15760008555612ef8565b82601f10612eca57805160ff1916838001178555612ef8565b82800160010185558215612ef8579182015b82811115612ef7578251825591602001919060010190612edc565b5b509050612f059190612f09565b5090565b5b80821115612f22576000816000905550600101612f0a565b5090565b6000604051905090565b600080fd5b600080fd5b60007fffffffff0000000000000000000000000000000000000000000000000000000082169050919050565b612f6f81612f3a565b8114612f7a57600080fd5b50565b600081359050612f8c81612f66565b92915050565b600060208284031215612fa857612fa7612f30565b5b6000612fb684828501612f7d565b91505092915050565b60008115159050919050565b612fd481612fbf565b82525050565b6000602082019050612fef6000830184612fcb565b92915050565b612ffe81612fbf565b811461300957600080fd5b50565b60008135905061301b81612ff5565b92915050565b60006020828403121561303757613036612f30565b5b60006130458482850161300c565b91505092915050565b600081519050919050565b600082825260208201905092915050565b60005b8381101561308857808201518184015260208101905061306d565b83811115613097576000848401525b50505050565b6000601f19601f8301169050919050565b60006130b98261304e565b6130c38185613059565b93506130d381856020860161306a565b6130dc8161309d565b840191505092915050565b6000602082019050818103600083015261310181846130ae565b905092915050565b6000819050919050565b61311c81613109565b811461312757600080fd5b50565b60008135905061313981613113565b92915050565b60006020828403121561315557613154612f30565b5b60006131638482850161312a565b91505092915050565b600073ffffffffffffffffffffffffffffffffffffffff82169050919050565b60006131978261316c565b9050919050565b6131a78161318c565b82525050565b60006020820190506131c2600083018461319e565b92915050565b6131d18161318c565b81146131dc57600080fd5b50565b6000813590506131ee816131c8565b92915050565b6000806040838503121561320b5761320a612f30565b5b6000613219858286016131df565b925050602061322a8582860161312a565b9150509250929050565b61323d81613109565b82525050565b60006020820190506132586000830184613234565b92915050565b60008060006060848603121561327757613276612f30565b5b6000613285868287016131df565b9350506020613296868287016131df565b92505060406132a78682870161312a565b9150509250925092565b6000602082840312156132c7576132c6612f30565b5b60006132d5848285016131df565b91505092915050565b600081519050919050565b600082825260208201905092915050565b6000819050602082019050919050565b61331381613109565b82525050565b6000613325838361330a565b60208301905092915050565b6000602082019050919050565b6000613349826132de565b61335381856132e9565b935061335e836132fa565b8060005b8381101561338f5781516133768882613319565b975061338183613331565b925050600181019050613362565b5085935050505092915050565b600060208201905081810360008301526133b6818461333e565b905092915050565b600080fd5b7f4e487b7100000000000000000000000000000000000000000000000000000000600052604160045260246000fd5b6133fb8261309d565b810181811067ffffffffffffffff8211171561341a576134196133c3565b5b80604052505050565b600061342d612f26565b905061343982826133f2565b919050565b600067ffffffffffffffff821115613459576134586133c3565b5b602082029050602081019050919050565b600080fd5b600080fd5b600067ffffffffffffffff82111561348f5761348e6133c3565b5b6134988261309d565b9050602081019050919050565b82818337600083830152505050565b60006134c76134c284613474565b613423565b9050828152602081018484840111156134e3576134e261346f565b5b6134ee8482856134a5565b509392505050565b600082601f83011261350b5761350a6133be565b5b813561351b8482602086016134b4565b91505092915050565b60006135376135328461343e565b613423565b9050808382526020820190506020840283018581111561355a5761355961346a565b5b835b818110156135a157803567ffffffffffffffff81111561357f5761357e6133be565b5b80860161358c89826134f6565b8552602085019450505060208101905061355c565b5050509392505050565b600082601f8301126135c0576135bf6133be565b5b81356135d0848260208601613524565b91505092915050565b6000602082840312156135ef576135ee612f30565b5b600082013567ffffffffffffffff81111561360d5761360c612f35565b5b613619848285016135ab565b91505092915050565b60006020828403121561363857613637612f30565b5b600082013567ffffffffffffffff81111561365657613655612f35565b5b613662848285016134f6565b91505092915050565b6000806040838503121561368257613681612f30565b5b6000613690858286016131df565b92505060206136a18582860161300c565b9150509250929050565b600067ffffffffffffffff8211156136c6576136c56133c3565b5b6136cf8261309d565b9050602081019050919050565b60006136ef6136ea846136ab565b613423565b90508281526020810184848401111561370b5761370a61346f565b5b6137168482856134a5565b509392505050565b600082601f830112613733576137326133be565b5b81356137438482602086016136dc565b91505092915050565b6000806000806080858703121561376657613765612f30565b5b6000613774878288016131df565b9450506020613785878288016131df565b93505060406137968782880161312a565b925050606085013567ffffffffffffffff8111156137b7576137b6612f35565b5b6137c38782880161371e565b91505092959194509250565b600080604083850312156137e6576137e5612f30565b5b60006137f4858286016131df565b9250506020613805858286016131df565b9150509250929050565b7f4f776e61626c653a2063616c6c6572206973206e6f7420746865206f776e6572600082015250565b6000613845602083613059565b91506138508261380f565b602082019050919050565b6000602082019050818103600083015261387481613838565b9050919050565b7f4e487b7100000000000000000000000000000000000000000000000000000000600052602260045260246000fd5b600060028204905060018216806138c257607f821691505b602082108114156138d6576138d561387b565b5b50919050565b7f4552433732313a20617070726f76656420717565727920666f72206e6f6e657860008201527f697374656e7420746f6b656e0000000000000000000000000000000000000000602082015250565b6000613938602c83613059565b9150613943826138dc565b604082019050919050565b600060208201905081810360008301526139678161392b565b9050919050565b7f4552433732313a20617070726f76616c20746f2063757272656e74206f776e6560008201527f7200000000000000000000000000000000000000000000000000000000000000602082015250565b60006139ca602183613059565b91506139d58261396e565b604082019050919050565b600060208201905081810360008301526139f9816139bd565b9050919050565b7f4552433732313a20617070726f76652063616c6c6572206973206e6f74206f7760008201527f6e6572206e6f7220617070726f76656420666f7220616c6c0000000000000000602082015250565b6000613a5c603883613059565b9150613a6782613a00565b604082019050919050565b60006020820190508181036000830152613a8b81613a4f565b9050919050565b7f4552433732313a207472616e736665722063616c6c6572206973206e6f74206f60008201527f776e6572206e6f7220617070726f766564000000000000000000000000000000602082015250565b6000613aee603183613059565b9150613af982613a92565b604082019050919050565b60006020820190508181036000830152613b1d81613ae1565b9050919050565b7f455243373231456e756d657261626c653a206f776e657220696e646578206f7560008201527f74206f6620626f756e6473000000000000000000000000000000000000000000602082015250565b6000613b80602b83613059565b9150613b8b82613b24565b604082019050919050565b60006020820190508181036000830152613baf81613b73565b9050919050565b7f4e487b7100000000000000000000000000000000000000000000000000000000600052601160045260246000fd5b6000613bf082613109565b9150613bfb83613109565b9250827fffffffffffffffffffffffffffffffffffffffffffffffffffffffffffffffff03821115613c3057613c2f613bb6565b5b828201905092915050565b6000613c4682613109565b9150613c5183613109565b9250817fffffffffffffffffffffffffffffffffffffffffffffffffffffffffffffffff0483118215151615613c8a57613c89613bb6565b5b828202905092915050565b6000613ca082613109565b91507fffffffffffffffffffffffffffffffffffffffffffffffffffffffffffffffff821415613cd357613cd2613bb6565b5b600182019050919050565b7f4e487b7100000000000000000000000000000000000000000000000000000000600052603260045260246000fd5b7f455243373231456e756d657261626c653a20676c6f62616c20696e646578206f60008201527f7574206f6620626f756e64730000000000000000000000000000000000000000602082015250565b6000613d69602c83613059565b9150613d7482613d0d565b604082019050919050565b60006020820190508181036000830152613d9881613d5c565b9050919050565b7f4552433732313a206f776e657220717565727920666f72206e6f6e657869737460008201527f656e7420746f6b656e0000000000000000000000000000000000000000000000602082015250565b6000613dfb602983613059565b9150613e0682613d9f565b604082019050919050565b60006020820190508181036000830152613e2a81613dee565b9050919050565b7f4552433732313a2062616c616e636520717565727920666f7220746865207a6560008201527f726f206164647265737300000000000000000000000000000000000000000000602082015250565b6000613e8d602a83613059565b9150613e9882613e31565b604082019050919050565b60006020820190508181036000830152613ebc81613e80565b9050919050565b7f4552433732313a20617070726f766520746f2063616c6c657200000000000000600082015250565b6000613ef9601983613059565b9150613f0482613ec3565b602082019050919050565b60006020820190508181036000830152613f2881613eec565b9050919050565b7f4f776e61626c653a206e6577206f776e657220697320746865207a65726f206160008201527f6464726573730000000000000000000000000000000000000000000000000000602082015250565b6000613f8b602683613059565b9150613f9682613f2f565b604082019050919050565b60006020820190508181036000830152613fba81613f7e565b9050919050565b7f4552433732313a206f70657261746f7220717565727920666f72206e6f6e657860008201527f697374656e7420746f6b656e0000000000000000000000000000000000000000602082015250565b600061401d602c83613059565b915061402882613fc1565b604082019050919050565b6000602082019050818103600083015261404c81614010565b9050919050565b7f4552433732313a207472616e73666572206f6620746f6b656e2074686174206960008201527f73206e6f74206f776e0000000000000000000000000000000000000000000000602082015250565b60006140af602983613059565b91506140ba82614053565b604082019050919050565b600060208201905081810360008301526140de816140a2565b9050919050565b7f4552433732313a207472616e7366657220746f20746865207a65726f2061646460008201527f7265737300000000000000000000000000000000000000000000000000000000602082015250565b6000614141602483613059565b915061414c826140e5565b604082019050919050565b6000602082019050818103600083015261417081614134565b9050919050565b600061418282613109565b915061418d83613109565b9250828210156141a05761419f613bb6565b5b828203905092915050565b7f45524337323155524953746f726167653a2055524920736574206f66206e6f6e60008201527f6578697374656e7420746f6b656e000000000000000000000000000000000000602082015250565b6000614207602e83613059565b9150614212826141ab565b604082019050919050565b60006020820190508181036000830152614236816141fa565b9050919050565b7f4552433732313a207472616e7366657220746f206e6f6e20455243373231526560008201527f63656976657220696d706c656d656e7465720000000000000000000000000000602082015250565b6000614299603283613059565b91506142a48261423d565b604082019050919050565b600060208201905081810360008301526142c88161428c565b9050919050565b7f45524337323155524953746f726167653a2055524920717565727920666f722060008201527f6e6f6e6578697374656e7420746f6b656e000000000000000000000000000000602082015250565b600061432b603183613059565b9150614336826142cf565b604082019050919050565b6000602082019050818103600083015261435a8161431e565b9050919050565b600081905092915050565b60006143778261304e565b6143818185614361565b935061439181856020860161306a565b80840191505092915050565b60006143a9828561436c565b91506143b5828461436c565b91508190509392505050565b7f4e487b7100000000000000000000000000000000000000000000000000000000600052603160045260246000fd5b600081519050919050565b600082825260208201905092915050565b6000614417826143f0565b61442181856143fb565b935061443181856020860161306a565b61443a8161309d565b840191505092915050565b600060808201905061445a600083018761319e565b614467602083018661319e565b6144746040830185613234565b8181036060830152614486818461440c565b905095945050505050565b6000815190506144a081612f66565b92915050565b6000602082840312156144bc576144bb612f30565b5b60006144ca84828501614491565b91505092915050565b7f4552433732314d657461646174613a2055524920717565727920666f72206e6f60008201527f6e6578697374656e7420746f6b656e0000000000000000000000000000000000602082015250565b600061452f602f83613059565b915061453a826144d3565b604082019050919050565b6000602082019050818103600083015261455e81614522565b9050919050565b7f4552433732313a206d696e7420746f20746865207a65726f2061646472657373600082015250565b600061459b602083613059565b91506145a682614565565b602082019050919050565b600060208201905081810360008301526145ca8161458e565b9050919050565b7f4552433732313a20746f6b656e20616c7265616479206d696e74656400000000600082015250565b6000614607601c83613059565b9150614612826145d1565b602082019050919050565b60006020820190508181036000830152614636816145fa565b9050919050565b7f4e487b7100000000000000000000000000000000000000000000000000000000600052601260045260246000fd5b600061467782613109565b915061468283613109565b9250826146925761469161463d565b5b828204905092915050565b60006146a882613109565b91506146b383613109565b9250826146c3576146c261463d565b5b82820690509291505056fea2646970667358221220b1d3e1b096d8f43fbb0e96b5cd9e8f52008bfb2e331db58fb9f5a7bb153ba67d64736f6c634300080a0033",
  "immutableReferences": {},
  "source": "// SPDX-License-Identifier: MIT\npragma solidity ^0.8.2;\n\nimport \"@openzeppelin/contracts/token/ERC721/ERC721.sol\";\nimport \"@openzeppelin/contracts/token/ERC721/extensions/ERC721Enumerable.sol\";\nimport \"@openzeppelin/contracts/token/ERC721/extensions/ERC721URIStorage.sol\";\nimport \"@openzeppelin/contracts/access/Ownable.sol\";\nimport \"@openzeppelin/contracts/utils/Counters.sol\";\n\ncontract MyToken is ERC721, ERC721Enumerable, ERC721URIStorage, Ownable {\n    using Counters for Counters.Counter;\n\n    Counters.Counter private _tokenIdCounter;\n    //string[] private uris;\n\n    string public baseURI;\n    string public unrevealedURI;\n    //string public baseExtension = \".json\";\n    uint256 public cost = 0.05 ether;\n    uint256 public maxSupply = 5000;\n    uint256 public maxMintAmount = 20;\n    bool public paused = false;\n    bool public revealed = false;\n\n    constructor(\n        string memory _name,\n        string memory _symbol,\n        string memory _initBaseURI,\n        string memory _unrevealedURI\n    ) ERC721(_name, _symbol) {\n        setBaseURI(_initBaseURI);\n        setUnrevealedURI(_unrevealedURI);\n        safeMint(5);\n    }\n    \n    function safeMint(uint256 _mintAmount) public payable {\n        uint256 supply = totalSupply();\n        require(!paused);\n        require(_mintAmount > 0);\n        require(_mintAmount <= maxMintAmount);\n        require(supply + _mintAmount <= maxSupply);\n\n        if(msg.sender != owner()) {\n            require(msg.value >= cost * _mintAmount);\n        }\n\n        for(uint256 i = 0; i < _mintAmount; ++i) {\n            uint256 tokenId = _tokenIdCounter.current();\n            _tokenIdCounter.increment();\n            _safeMint(msg.sender, tokenId);\n            _setTokenURI(tokenId, unrevealedURI);\n        }\n    }\n\n    function walletOfOwner(address _owner)\n        public\n        view\n        returns (uint256[] memory) \n    {\n        uint256 ownerTokenCount = balanceOf(_owner);\n        uint256[] memory tokenIds = new uint256[](ownerTokenCount);\n        for(uint256 i; i < ownerTokenCount; ++i) {\n            tokenIds[i] = tokenOfOwnerByIndex(_owner, i);\n        }\n        return tokenIds;\n    }\n\n    function getCost() public view returns (uint256) {\n        return cost;\n    }\n\n    // onlyOwner functions\n\n    function reveal(string[] memory arr) public onlyOwner {\n        require(!revealed);\n        revealed = true;\n        pause(true);\n        for(uint256 i = 0; i < totalSupply(); ++i) {\n            _setTokenURI(i, arr[i]);\n        }\n    }\n\n    function setCost(uint256 _cost) public onlyOwner {\n        cost = _cost;\n    }\n\n    function setMaxMinAmount(uint _maxMintAmount) public onlyOwner {\n        maxMintAmount = _maxMintAmount;\n    }\n\n    function setUnrevealedURI(string memory _unrevealedURI) public onlyOwner {\n        unrevealedURI = _unrevealedURI;\n    }\n\n    function setBaseURI(string memory _baseURI) public onlyOwner {\n        baseURI = _baseURI;\n    }\n\n    function pause(bool _state) public onlyOwner {\n        paused = _state;\n    }\n\n    function withdraw() public payable onlyOwner {\n        require(payable(msg.sender).send(address(this).balance));\n    }\n    \n    // internal\n\n    function _baseURI() internal view virtual override returns (string memory) {\n        return baseURI;\n    }\n\n    // The following functions are overrides required by Solidity.\n\n    function _beforeTokenTransfer(address from, address to, uint256 tokenId)\n        internal\n        override(ERC721, ERC721Enumerable)\n    {\n        super._beforeTokenTransfer(from, to, tokenId);\n    }\n\n    function _burn(uint256 tokenId) internal override(ERC721, ERC721URIStorage) onlyOwner {\n        super._burn(tokenId);\n    }\n\n    function tokenURI(uint256 tokenId)\n        public\n        view\n        override(ERC721, ERC721URIStorage)\n        returns (string memory)\n    {\n        return super.tokenURI(tokenId);\n    }\n\n    function supportsInterface(bytes4 interfaceId)\n        public\n        view\n        override(ERC721, ERC721Enumerable)\n        returns (bool)\n    {\n        return super.supportsInterface(interfaceId);\n    }\n    \n}\n\n",
  "sourcePath": "/Users/arturo/code/nft-web/src/contracts/MyToken.sol",
  "compiler": {
    "name": "solc",
    "version": "0.8.10+commit.fc410830.Emscripten.clang"
  },
  "schemaVersion": "3.4.3",
  "updatedAt": "2021-12-01T03:40:05.397Z",
  "devdoc": {
    "kind": "dev",
    "methods": {
      "approve(address,uint256)": {
        "details": "See {IERC721-approve}."
      },
      "balanceOf(address)": {
        "details": "See {IERC721-balanceOf}."
      },
      "getApproved(uint256)": {
        "details": "See {IERC721-getApproved}."
      },
      "isApprovedForAll(address,address)": {
        "details": "See {IERC721-isApprovedForAll}."
      },
      "name()": {
        "details": "See {IERC721Metadata-name}."
      },
      "owner()": {
        "details": "Returns the address of the current owner."
      },
      "ownerOf(uint256)": {
        "details": "See {IERC721-ownerOf}."
      },
      "renounceOwnership()": {
        "details": "Leaves the contract without owner. It will not be possible to call `onlyOwner` functions anymore. Can only be called by the current owner. NOTE: Renouncing ownership will leave the contract without an owner, thereby removing any functionality that is only available to the owner."
      },
      "safeTransferFrom(address,address,uint256)": {
        "details": "See {IERC721-safeTransferFrom}."
      },
      "safeTransferFrom(address,address,uint256,bytes)": {
        "details": "See {IERC721-safeTransferFrom}."
      },
      "setApprovalForAll(address,bool)": {
        "details": "See {IERC721-setApprovalForAll}."
      },
      "symbol()": {
        "details": "See {IERC721Metadata-symbol}."
      },
      "tokenByIndex(uint256)": {
        "details": "See {IERC721Enumerable-tokenByIndex}."
      },
      "tokenOfOwnerByIndex(address,uint256)": {
        "details": "See {IERC721Enumerable-tokenOfOwnerByIndex}."
      },
      "totalSupply()": {
        "details": "See {IERC721Enumerable-totalSupply}."
      },
      "transferFrom(address,address,uint256)": {
        "details": "See {IERC721-transferFrom}."
      },
      "transferOwnership(address)": {
        "details": "Transfers ownership of the contract to a new account (`newOwner`). Can only be called by the current owner."
      }
    },
    "version": 1
  },
  "userdoc": {
    "kind": "user",
    "methods": {},
    "version": 1
  }
}